{
  "contractName": "HealthReport",
  "abi": [
    {
      "inputs": [],
      "stateMutability": "nonpayable",
      "type": "constructor"
    },
    {
      "inputs": [],
      "name": "ipfsHash",
      "outputs": [
        {
          "internalType": "string",
          "name": "",
          "type": "string"
        }
      ],
      "stateMutability": "view",
      "type": "function"
    },
    {
      "inputs": [],
      "name": "owner",
      "outputs": [
        {
          "internalType": "address",
          "name": "",
          "type": "address"
        }
      ],
      "stateMutability": "view",
      "type": "function"
    },
    {
      "inputs": [
        {
          "internalType": "string",
          "name": "newHash",
          "type": "string"
        }
      ],
      "name": "changeHash",
      "outputs": [],
      "stateMutability": "nonpayable",
      "type": "function"
    },
    {
      "inputs": [],
      "name": "fetchHash",
      "outputs": [
        {
          "internalType": "string",
          "name": "",
          "type": "string"
        }
      ],
      "stateMutability": "view",
      "type": "function"
    }
  ],
  "bytecode": "0x608060405234801562000010575f80fd5b506040518060400160405280600f81526020017f4e6f4861736853746f72656459657400000000000000000000000000000000008152506001908162000057919062000301565b50335f806101000a81548173ffffffffffffffffffffffffffffffffffffffff021916908373ffffffffffffffffffffffffffffffffffffffff160217905550620003e5565b5f81519050919050565b7f4e487b71000000000000000000000000000000000000000000000000000000005f52604160045260245ffd5b7f4e487b71000000000000000000000000000000000000000000000000000000005f52602260045260245ffd5b5f60028204905060018216806200011957607f821691505b6020821081036200012f576200012e620000d4565b5b50919050565b5f819050815f5260205f209050919050565b5f6020601f8301049050919050565b5f82821b905092915050565b5f60088302620001937fffffffffffffffffffffffffffffffffffffffffffffffffffffffffffffffff8262000156565b6200019f868362000156565b95508019841693508086168417925050509392505050565b5f819050919050565b5f819050919050565b5f620001e9620001e3620001dd84620001b7565b620001c0565b620001b7565b9050919050565b5f819050919050565b6200020483620001c9565b6200021c6200021382620001f0565b84845462000162565b825550505050565b5f90565b6200023262000224565b6200023f818484620001f9565b505050565b5b8181101562000266576200025a5f8262000228565b60018101905062000245565b5050565b601f821115620002b5576200027f8162000135565b6200028a8462000147565b810160208510156200029a578190505b620002b2620002a98562000147565b83018262000244565b50505b505050565b5f82821c905092915050565b5f620002d75f1984600802620002ba565b1980831691505092915050565b5f620002f18383620002c6565b9150826002028217905092915050565b6200030c826200009d565b67ffffffffffffffff811115620003285762000327620000a7565b5b62000334825462000101565b620003418282856200026a565b5f60209050601f83116001811462000377575f841562000362578287015190505b6200036e8582620002e4565b865550620003dd565b601f198416620003878662000135565b5f5b82811015620003b05784890151825560018201915060208501945060208101905062000389565b86831015620003d05784890151620003cc601f891682620002c6565b8355505b6001600288020188555050505b505050505050565b61089980620003f35f395ff3fe608060405234801561000f575f80fd5b506004361061004a575f3560e01c80631ddf73591461004e5780638da5cb5b1461006a578063c623674f14610088578063f8f8b03f146100a6575b5f80fd5b610068600480360381019061006391906103f0565b6100c4565b005b610072610164565b60405161007f9190610476565b60405180910390f35b610090610187565b60405161009d9190610509565b60405180910390f35b6100ae610213565b6040516100bb9190610509565b60405180910390f35b5f8054906101000a900473ffffffffffffffffffffffffffffffffffffffff1673ffffffffffffffffffffffffffffffffffffffff163373ffffffffffffffffffffffffffffffffffffffff1614610151576040517f08c379a000000000000000000000000000000000000000000000000000000000815260040161014890610573565b60405180910390fd5b80600190816101609190610794565b5050565b5f8054906101000a900473ffffffffffffffffffffffffffffffffffffffff1681565b60018054610194906105be565b80601f01602080910402602001604051908101604052809291908181526020018280546101c0906105be565b801561020b5780601f106101e25761010080835404028352916020019161020b565b820191905f5260205f20905b8154815290600101906020018083116101ee57829003601f168201915b505050505081565b606060018054610222906105be565b80601f016020809104026020016040519081016040528092919081815260200182805461024e906105be565b80156102995780601f1061027057610100808354040283529160200191610299565b820191905f5260205f20905b81548152906001019060200180831161027c57829003601f168201915b5050505050905090565b5f604051905090565b5f80fd5b5f80fd5b5f80fd5b5f80fd5b5f601f19601f8301169050919050565b7f4e487b71000000000000000000000000000000000000000000000000000000005f52604160045260245ffd5b610302826102bc565b810181811067ffffffffffffffff82111715610321576103206102cc565b5b80604052505050565b5f6103336102a3565b905061033f82826102f9565b919050565b5f67ffffffffffffffff82111561035e5761035d6102cc565b5b610367826102bc565b9050602081019050919050565b828183375f83830152505050565b5f61039461038f84610344565b61032a565b9050828152602081018484840111156103b0576103af6102b8565b5b6103bb848285610374565b509392505050565b5f82601f8301126103d7576103d66102b4565b5b81356103e7848260208601610382565b91505092915050565b5f60208284031215610405576104046102ac565b5b5f82013567ffffffffffffffff811115610422576104216102b0565b5b61042e848285016103c3565b91505092915050565b5f73ffffffffffffffffffffffffffffffffffffffff82169050919050565b5f61046082610437565b9050919050565b61047081610456565b82525050565b5f6020820190506104895f830184610467565b92915050565b5f81519050919050565b5f82825260208201905092915050565b5f5b838110156104c65780820151818401526020810190506104ab565b5f8484015250505050565b5f6104db8261048f565b6104e58185610499565b93506104f58185602086016104a9565b6104fe816102bc565b840191505092915050565b5f6020820190508181035f83015261052181846104d1565b905092915050565b7f4163636573732044656e696564210000000000000000000000000000000000005f82015250565b5f61055d600e83610499565b915061056882610529565b602082019050919050565b5f6020820190508181035f83015261058a81610551565b9050919050565b7f4e487b71000000000000000000000000000000000000000000000000000000005f52602260045260245ffd5b5f60028204905060018216806105d557607f821691505b6020821081036105e8576105e7610591565b5b50919050565b5f819050815f5260205f209050919050565b5f6020601f8301049050919050565b5f82821b905092915050565b5f6008830261064a7fffffffffffffffffffffffffffffffffffffffffffffffffffffffffffffffff8261060f565b610654868361060f565b95508019841693508086168417925050509392505050565b5f819050919050565b5f819050919050565b5f61069861069361068e8461066c565b610675565b61066c565b9050919050565b5f819050919050565b6106b18361067e565b6106c56106bd8261069f565b84845461061b565b825550505050565b5f90565b6106d96106cd565b6106e48184846106a8565b505050565b5b81811015610707576106fc5f826106d1565b6001810190506106ea565b5050565b601f82111561074c5761071d816105ee565b61072684610600565b81016020851015610735578190505b61074961074185610600565b8301826106e9565b50505b505050565b5f82821c905092915050565b5f61076c5f1984600802610751565b1980831691505092915050565b5f610784838361075d565b9150826002028217905092915050565b61079d8261048f565b67ffffffffffffffff8111156107b6576107b56102cc565b5b6107c082546105be565b6107cb82828561070b565b5f60209050601f8311600181146107fc575f84156107ea578287015190505b6107f48582610779565b86555061085b565b601f19841661080a866105ee565b5f5b828110156108315784890151825560018201915060208501945060208101905061080c565b8683101561084e578489015161084a601f89168261075d565b8355505b6001600288020188555050505b50505050505056fea2646970667358221220a84e252335b33646a921fa3554b8f949cffe02dff6385287fa3b5543dedc523e64736f6c63430008150033",
  "immutableReferences": {},
  "source": "// SPDX-License-Identifier: MIT\r\npragma solidity >=0.8.19;\r\n\r\ncontract HealthReport{\r\n    address public owner;\r\n    string public ipfsHash;\r\n\r\n    constructor(){\r\n        ipfsHash = \"NoHashStoredYet\";\r\n        owner = msg.sender;\r\n    }\r\n\r\n    function changeHash(string memory newHash) public{\r\n        require(msg.sender == owner, \"Access Denied!\");\r\n        ipfsHash = newHash;\r\n    }\r\n\r\n    function fetchHash() public view returns(string memory){\r\n        return (ipfsHash);\r\n    }\r\n}",
  "sourcePath": "C:\\Users\\mohit\\OneDrive\\Desktop\\Mohith Personal\\Projects\\MedVault\\backend_blockchain\\contracts\\HealthReportContract.sol",
  "compiler": {
    "name": "solc",
    "version": "0.8.21+commit.d9974bed.Emscripten.clang"
  },
  "schemaVersion": "3.4.16",
  "updatedAt": "2023-12-03T11:54:04.134Z",
  "devdoc": {
    "kind": "dev",
    "methods": {},
    "version": 1
  },
  "userdoc": {
    "kind": "user",
    "methods": {},
    "version": 1
  }
}