{
  "contractName": "InfoContract",
  "abi": [
    {
      "anonymous": false,
      "inputs": [
        {
          "indexed": false,
          "internalType": "address",
          "name": "recipient",
          "type": "address"
        },
        {
          "indexed": false,
          "internalType": "uint256",
          "name": "infoId",
          "type": "uint256"
        }
      ],
      "name": "AddInfo",
      "type": "event"
    },
    {
      "anonymous": false,
      "inputs": [
        {
          "indexed": false,
          "internalType": "uint256",
          "name": "infoId",
          "type": "uint256"
        },
        {
          "indexed": false,
          "internalType": "bool",
          "name": "isDeleted",
          "type": "bool"
        }
      ],
      "name": "DeleteInfo",
      "type": "event"
    },
    {
      "inputs": [
        {
          "internalType": "string",
          "name": "healthInfo",
          "type": "string"
        },
        {
          "internalType": "bool",
          "name": "isDeleted",
          "type": "bool"
        }
      ],
      "name": "addInfo",
      "outputs": [],
      "stateMutability": "nonpayable",
      "type": "function"
    },
    {
      "inputs": [],
      "name": "getHealthInfo",
      "outputs": [
        {
          "components": [
            {
              "internalType": "uint256",
              "name": "id",
              "type": "uint256"
            },
            {
              "internalType": "string",
              "name": "healthInfo",
              "type": "string"
            },
            {
              "internalType": "bool",
              "name": "isDeleted",
              "type": "bool"
            }
          ],
          "internalType": "struct InfoContract.Info[]",
          "name": "",
          "type": "tuple[]"
        }
      ],
      "stateMutability": "view",
      "type": "function",
      "constant": true
    },
    {
      "inputs": [
        {
          "internalType": "uint256",
          "name": "infoId",
          "type": "uint256"
        },
        {
          "internalType": "bool",
          "name": "isDeleted",
          "type": "bool"
        }
      ],
      "name": "deleteInfo",
      "outputs": [],
      "stateMutability": "nonpayable",
      "type": "function"
    }
  ],
  "bytecode": "0x608060405234801561001057600080fd5b50610e63806100206000396000f3fe608060405234801561001057600080fd5b50600436106100415760003560e01c80636a6286fa146100465780639077b7f214610064578063e843226714610080575b600080fd5b61004e61009c565b60405161005b9190610799565b60405180910390f35b61007e60048036038101906100799190610930565b610392565b005b61009a600480360381019061009591906109b8565b6104b5565b005b60606000808054905067ffffffffffffffff8111156100be576100bd6107d9565b5b6040519080825280602002602001820160405280156100f757816020015b6100e4610597565b8152602001906001900390816100dc5790505b5090506000805b6000805490508110156102d8573373ffffffffffffffffffffffffffffffffffffffff166001600083815260200190815260200160002060009054906101000a900473ffffffffffffffffffffffffffffffffffffffff1673ffffffffffffffffffffffffffffffffffffffff161480156101af5750600015156000828154811061018c5761018b6109f8565b5b906000526020600020906003020160020160009054906101000a900460ff161515145b156102c557600081815481106101c8576101c76109f8565b5b9060005260206000209060030201604051806060016040529081600082015481526020016001820180546101fb90610a56565b80601f016020809104026020016040519081016040528092919081815260200182805461022790610a56565b80156102745780601f1061024957610100808354040283529160200191610274565b820191906000526020600020905b81548152906001019060200180831161025757829003601f168201915b505050505081526020016002820160009054906101000a900460ff1615151515815250508383815181106102ab576102aa6109f8565b5b602002602001018190525081806102c190610ab6565b9250505b80806102d090610ab6565b9150506100fe565b5060008167ffffffffffffffff8111156102f5576102f46107d9565b5b60405190808252806020026020018201604052801561032e57816020015b61031b610597565b8152602001906001900390816103135790505b50905060005b828110156103885783818151811061034f5761034e6109f8565b5b602002602001015182828151811061036a576103696109f8565b5b6020026020010181905250808061038090610ab6565b915050610334565b5080935050505090565b6000808054905090506000604051806060016040528083815260200185815260200184151581525090806001815401808255809150506001900390600052602060002090600302016000909190919091506000820151816000015560208201518160010190816104029190610caa565b5060408201518160020160006101000a81548160ff0219169083151502179055505050336001600083815260200190815260200160002060006101000a81548173ffffffffffffffffffffffffffffffffffffffff021916908373ffffffffffffffffffffffffffffffffffffffff1602179055507fc289701f19fd87c309239a6790a328b78eacfa7c1bbdd301a9ed82ad1256f41a33826040516104a8929190610dcc565b60405180910390a1505050565b3373ffffffffffffffffffffffffffffffffffffffff166001600084815260200190815260200160002060009054906101000a900473ffffffffffffffffffffffffffffffffffffffff1673ffffffffffffffffffffffffffffffffffffffff160361059357600160008381548110610531576105306109f8565b5b906000526020600020906003020160020160006101000a81548160ff0219169083151502179055507f4c6b922721b5e42c557c63c88274e2ab83205a927b10613f5e68d097b34069a9828260405161058a929190610e04565b60405180910390a15b5050565b604051806060016040528060008152602001606081526020016000151581525090565b600081519050919050565b600082825260208201905092915050565b6000819050602082019050919050565b6000819050919050565b6105f9816105e6565b82525050565b600081519050919050565b600082825260208201905092915050565b60005b8381101561063957808201518184015260208101905061061e565b83811115610648576000848401525b50505050565b6000601f19601f8301169050919050565b600061066a826105ff565b610674818561060a565b935061068481856020860161061b565b61068d8161064e565b840191505092915050565b60008115159050919050565b6106ad81610698565b82525050565b60006060830160008301516106cb60008601826105f0565b50602083015184820360208601526106e3828261065f565b91505060408301516106f860408601826106a4565b508091505092915050565b600061070f83836106b3565b905092915050565b6000602082019050919050565b600061072f826105ba565b61073981856105c5565b93508360208202850161074b856105d6565b8060005b8581101561078757848403895281516107688582610703565b945061077383610717565b925060208a0199505060018101905061074f565b50829750879550505050505092915050565b600060208201905081810360008301526107b38184610724565b905092915050565b6000604051905090565b600080fd5b600080fd5b600080fd5b600080fd5b7f4e487b7100000000000000000000000000000000000000000000000000000000600052604160045260246000fd5b6108118261064e565b810181811067ffffffffffffffff821117156108305761082f6107d9565b5b80604052505050565b60006108436107bb565b905061084f8282610808565b919050565b600067ffffffffffffffff82111561086f5761086e6107d9565b5b6108788261064e565b9050602081019050919050565b82818337600083830152505050565b60006108a76108a284610854565b610839565b9050828152602081018484840111156108c3576108c26107d4565b5b6108ce848285610885565b509392505050565b600082601f8301126108eb576108ea6107cf565b5b81356108fb848260208601610894565b91505092915050565b61090d81610698565b811461091857600080fd5b50565b60008135905061092a81610904565b92915050565b60008060408385031215610947576109466107c5565b5b600083013567ffffffffffffffff811115610965576109646107ca565b5b610971858286016108d6565b92505060206109828582860161091b565b9150509250929050565b610995816105e6565b81146109a057600080fd5b50565b6000813590506109b28161098c565b92915050565b600080604083850312156109cf576109ce6107c5565b5b60006109dd858286016109a3565b92505060206109ee8582860161091b565b9150509250929050565b7f4e487b7100000000000000000000000000000000000000000000000000000000600052603260045260246000fd5b7f4e487b7100000000000000000000000000000000000000000000000000000000600052602260045260246000fd5b60006002820490506001821680610a6e57607f821691505b602082108103610a8157610a80610a27565b5b50919050565b7f4e487b7100000000000000000000000000000000000000000000000000000000600052601160045260246000fd5b6000610ac1826105e6565b91507fffffffffffffffffffffffffffffffffffffffffffffffffffffffffffffffff8203610af357610af2610a87565b5b600182019050919050565b60008190508160005260206000209050919050565b60006020601f8301049050919050565b600082821b905092915050565b600060088302610b607fffffffffffffffffffffffffffffffffffffffffffffffffffffffffffffffff82610b23565b610b6a8683610b23565b95508019841693508086168417925050509392505050565b6000819050919050565b6000610ba7610ba2610b9d846105e6565b610b82565b6105e6565b9050919050565b6000819050919050565b610bc183610b8c565b610bd5610bcd82610bae565b848454610b30565b825550505050565b600090565b610bea610bdd565b610bf5818484610bb8565b505050565b5b81811015610c1957610c0e600082610be2565b600181019050610bfb565b5050565b601f821115610c5e57610c2f81610afe565b610c3884610b13565b81016020851015610c47578190505b610c5b610c5385610b13565b830182610bfa565b50505b505050565b600082821c905092915050565b6000610c8160001984600802610c63565b1980831691505092915050565b6000610c9a8383610c70565b9150826002028217905092915050565b610cb3826105ff565b67ffffffffffffffff811115610ccc57610ccb6107d9565b5b610cd68254610a56565b610ce1828285610c1d565b600060209050601f831160018114610d145760008415610d02578287015190505b610d0c8582610c8e565b865550610d74565b601f198416610d2286610afe565b60005b82811015610d4a57848901518255600182019150602085019450602081019050610d25565b86831015610d675784890151610d63601f891682610c70565b8355505b6001600288020188555050505b505050505050565b600073ffffffffffffffffffffffffffffffffffffffff82169050919050565b6000610da782610d7c565b9050919050565b610db781610d9c565b82525050565b610dc6816105e6565b82525050565b6000604082019050610de16000830185610dae565b610dee6020830184610dbd565b9392505050565b610dfe81610698565b82525050565b6000604082019050610e196000830185610dbd565b610e266020830184610df5565b939250505056fea264697066735822122049f518aa60e97aba2d698317d259dc2d4a16cf41a6e87cacd7c87185ce9d40b064736f6c634300080f0033",
  "immutableReferences": {},
  "source": "// SPDX-License-Identifier: MIT\r\npragma solidity 0.8.15;\r\n\r\ncontract InfoContract {\r\n    event AddInfo(address recipient, uint infoId);\r\n    event DeleteInfo(uint infoId, bool isDeleted);\r\n\r\n    struct Info {\r\n        uint id;\r\n        string healthInfo;\r\n        bool isDeleted;\r\n    }\r\n\r\n    Info[] private infos;\r\n\r\n    mapping(uint => address) infoOwner;\r\n\r\n    function addInfo(string memory healthInfo, bool isDeleted) external {\r\n        uint infoId = infos.length;\r\n        infos.push(Info(infoId, healthInfo, isDeleted));\r\n        infoOwner[infoId] = msg.sender;\r\n        emit AddInfo(msg.sender, infoId);\r\n    }\r\n\r\n    function getHealthInfo() external view returns (Info[] memory) {\r\n        Info[] memory temp = new Info[](infos.length);\r\n        uint count = 0;\r\n\r\n        for (uint i = 0; i < infos.length; i++) {\r\n            if (infoOwner[i] == msg.sender && infos[i].isDeleted == false) {\r\n                temp[count] = infos[i];\r\n                count++;\r\n            }\r\n        }\r\n        Info[] memory result = new Info[](count);\r\n        for (uint i = 0; i < count; i++) {\r\n            result[i] = temp[i];\r\n        }\r\n        return result;\r\n    }\r\n\r\n    function deleteInfo(uint infoId, bool isDeleted) external {\r\n        if (infoOwner[infoId] == msg.sender) {\r\n            infos[infoId].isDeleted = true;\r\n            emit DeleteInfo(infoId, isDeleted);\r\n        }\r\n    }\r\n}\r\n",
  "sourcePath": "C:\\Users\\mohit\\OneDrive\\Desktop\\MedVault\\web3-51\\backend_blockchain\\contracts\\InfoContract.sol",
  "compiler": {
    "name": "solc",
    "version": "0.8.15+commit.e14f2714.Emscripten.clang"
  },
  "schemaVersion": "3.4.16",
  "updatedAt": "2023-12-20T18:15:46.916Z",
  "networkType": "ethereum",
  "devdoc": {
    "kind": "dev",
    "methods": {},
    "version": 1
  },
  "userdoc": {
    "kind": "user",
    "methods": {},
    "version": 1
  }
}