{
  "contractName": "MedVault",
  "abi": [
    {
      "anonymous": false,
      "inputs": [
        {
          "indexed": false,
          "internalType": "address",
          "name": "recipient",
          "type": "address"
        },
        {
          "indexed": false,
          "internalType": "uint256",
          "name": "infoId",
          "type": "uint256"
        }
      ],
      "name": "AddInfo",
      "type": "event"
    },
    {
      "anonymous": false,
      "inputs": [
        {
          "indexed": false,
          "internalType": "uint256",
          "name": "infoId",
          "type": "uint256"
        },
        {
          "indexed": false,
          "internalType": "bool",
          "name": "isDeleted",
          "type": "bool"
        }
      ],
      "name": "DeleteInfo",
      "type": "event"
    },
    {
      "inputs": [
        {
          "internalType": "string",
          "name": "healthInfo",
          "type": "string"
        },
        {
          "internalType": "bool",
          "name": "isDeleted",
          "type": "bool"
        }
      ],
      "name": "addInfo",
      "outputs": [],
      "stateMutability": "nonpayable",
      "type": "function"
    },
    {
      "inputs": [],
      "name": "getHealthInfo",
      "outputs": [
        {
          "components": [
            {
              "internalType": "uint256",
              "name": "id",
              "type": "uint256"
            },
            {
              "internalType": "uint256",
              "name": "timeStamp",
              "type": "uint256"
            },
            {
              "internalType": "string",
              "name": "healthInfo",
              "type": "string"
            },
            {
              "internalType": "bool",
              "name": "isDeleted",
              "type": "bool"
            }
          ],
          "internalType": "struct MedVault.Info[]",
          "name": "",
          "type": "tuple[]"
        }
      ],
      "stateMutability": "view",
      "type": "function"
    },
    {
      "inputs": [
        {
          "internalType": "uint256",
          "name": "infoId",
          "type": "uint256"
        },
        {
          "internalType": "bool",
          "name": "isDeleted",
          "type": "bool"
        }
      ],
      "name": "deleteInfo",
      "outputs": [],
      "stateMutability": "nonpayable",
      "type": "function"
    }
  ],
  "bytecode": "0x608060405234801561000f575f80fd5b50610e1a8061001d5f395ff3fe608060405234801561000f575f80fd5b506004361061003f575f3560e01c80636a6286fa146100435780639077b7f214610061578063e84322671461007d575b5f80fd5b61004b610099565b6040516100589190610786565b60405180910390f35b61007b6004803603810190610076919061090d565b610385565b005b61009760048036038101906100929190610991565b6104ad565b005b60605f808054905067ffffffffffffffff8111156100ba576100b96107bf565b5b6040519080825280602002602001820160405280156100f357816020015b6100e0610588565b8152602001906001900390816100d85790505b5090505f805b5f805490508110156102cd573373ffffffffffffffffffffffffffffffffffffffff1660015f8381526020019081526020015f205f9054906101000a900473ffffffffffffffffffffffffffffffffffffffff1673ffffffffffffffffffffffffffffffffffffffff161480156101a157505f15155f8281548110610181576101806109cf565b5b905f5260205f2090600402016003015f9054906101000a900460ff161515145b156102ba575f81815481106101b9576101b86109cf565b5b905f5260205f2090600402016040518060800160405290815f8201548152602001600182015481526020016002820180546101f390610a29565b80601f016020809104026020016040519081016040528092919081815260200182805461021f90610a29565b801561026a5780601f106102415761010080835404028352916020019161026a565b820191905f5260205f20905b81548152906001019060200180831161024d57829003601f168201915b50505050508152602001600382015f9054906101000a900460ff1615151515815250508383815181106102a05761029f6109cf565b5b602002602001018190525081806102b690610a86565b9250505b80806102c590610a86565b9150506100f9565b505f8167ffffffffffffffff8111156102e9576102e86107bf565b5b60405190808252806020026020018201604052801561032257816020015b61030f610588565b8152602001906001900390816103075790505b5090505f5b8281101561037b57838181518110610342576103416109cf565b5b602002602001015182828151811061035d5761035c6109cf565b5b6020026020010181905250808061037390610a86565b915050610327565b5080935050505090565b5f808054905090505f6040518060800160405280838152602001428152602001858152602001841515815250908060018154018082558091505060019003905f5260205f2090600402015f909190919091505f820151815f01556020820151816001015560408201518160020190816103fe9190610c6a565b506060820151816003015f6101000a81548160ff02191690831515021790555050503360015f8381526020019081526020015f205f6101000a81548173ffffffffffffffffffffffffffffffffffffffff021916908373ffffffffffffffffffffffffffffffffffffffff1602179055507fc289701f19fd87c309239a6790a328b78eacfa7c1bbdd301a9ed82ad1256f41a33826040516104a0929190610d87565b60405180910390a1505050565b3373ffffffffffffffffffffffffffffffffffffffff1660015f8481526020019081526020015f205f9054906101000a900473ffffffffffffffffffffffffffffffffffffffff1673ffffffffffffffffffffffffffffffffffffffff16036105845760015f8381548110610525576105246109cf565b5b905f5260205f2090600402016003015f6101000a81548160ff0219169083151502179055507f4c6b922721b5e42c557c63c88274e2ab83205a927b10613f5e68d097b34069a9828260405161057b929190610dbd565b60405180910390a15b5050565b60405180608001604052805f81526020015f8152602001606081526020015f151581525090565b5f81519050919050565b5f82825260208201905092915050565b5f819050602082019050919050565b5f819050919050565b6105ea816105d8565b82525050565b5f81519050919050565b5f82825260208201905092915050565b5f5b8381101561062757808201518184015260208101905061060c565b5f8484015250505050565b5f601f19601f8301169050919050565b5f61064c826105f0565b61065681856105fa565b935061066681856020860161060a565b61066f81610632565b840191505092915050565b5f8115159050919050565b61068e8161067a565b82525050565b5f608083015f8301516106a95f8601826105e1565b5060208301516106bc60208601826105e1565b50604083015184820360408601526106d48282610642565b91505060608301516106e96060860182610685565b508091505092915050565b5f6106ff8383610694565b905092915050565b5f602082019050919050565b5f61071d826105af565b61072781856105b9565b935083602082028501610739856105c9565b805f5b85811015610774578484038952815161075585826106f4565b945061076083610707565b925060208a0199505060018101905061073c565b50829750879550505050505092915050565b5f6020820190508181035f83015261079e8184610713565b905092915050565b5f604051905090565b5f80fd5b5f80fd5b5f80fd5b5f80fd5b7f4e487b71000000000000000000000000000000000000000000000000000000005f52604160045260245ffd5b6107f582610632565b810181811067ffffffffffffffff82111715610814576108136107bf565b5b80604052505050565b5f6108266107a6565b905061083282826107ec565b919050565b5f67ffffffffffffffff821115610851576108506107bf565b5b61085a82610632565b9050602081019050919050565b828183375f83830152505050565b5f61088761088284610837565b61081d565b9050828152602081018484840111156108a3576108a26107bb565b5b6108ae848285610867565b509392505050565b5f82601f8301126108ca576108c96107b7565b5b81356108da848260208601610875565b91505092915050565b6108ec8161067a565b81146108f6575f80fd5b50565b5f81359050610907816108e3565b92915050565b5f8060408385031215610923576109226107af565b5b5f83013567ffffffffffffffff8111156109405761093f6107b3565b5b61094c858286016108b6565b925050602061095d858286016108f9565b9150509250929050565b610970816105d8565b811461097a575f80fd5b50565b5f8135905061098b81610967565b92915050565b5f80604083850312156109a7576109a66107af565b5b5f6109b48582860161097d565b92505060206109c5858286016108f9565b9150509250929050565b7f4e487b71000000000000000000000000000000000000000000000000000000005f52603260045260245ffd5b7f4e487b71000000000000000000000000000000000000000000000000000000005f52602260045260245ffd5b5f6002820490506001821680610a4057607f821691505b602082108103610a5357610a526109fc565b5b50919050565b7f4e487b71000000000000000000000000000000000000000000000000000000005f52601160045260245ffd5b5f610a90826105d8565b91507fffffffffffffffffffffffffffffffffffffffffffffffffffffffffffffffff8203610ac257610ac1610a59565b5b600182019050919050565b5f819050815f5260205f209050919050565b5f6020601f8301049050919050565b5f82821b905092915050565b5f60088302610b297fffffffffffffffffffffffffffffffffffffffffffffffffffffffffffffffff82610aee565b610b338683610aee565b95508019841693508086168417925050509392505050565b5f819050919050565b5f610b6e610b69610b64846105d8565b610b4b565b6105d8565b9050919050565b5f819050919050565b610b8783610b54565b610b9b610b9382610b75565b848454610afa565b825550505050565b5f90565b610baf610ba3565b610bba818484610b7e565b505050565b5b81811015610bdd57610bd25f82610ba7565b600181019050610bc0565b5050565b601f821115610c2257610bf381610acd565b610bfc84610adf565b81016020851015610c0b578190505b610c1f610c1785610adf565b830182610bbf565b50505b505050565b5f82821c905092915050565b5f610c425f1984600802610c27565b1980831691505092915050565b5f610c5a8383610c33565b9150826002028217905092915050565b610c73826105f0565b67ffffffffffffffff811115610c8c57610c8b6107bf565b5b610c968254610a29565b610ca1828285610be1565b5f60209050601f831160018114610cd2575f8415610cc0578287015190505b610cca8582610c4f565b865550610d31565b601f198416610ce086610acd565b5f5b82811015610d0757848901518255600182019150602085019450602081019050610ce2565b86831015610d245784890151610d20601f891682610c33565b8355505b6001600288020188555050505b505050505050565b5f73ffffffffffffffffffffffffffffffffffffffff82169050919050565b5f610d6282610d39565b9050919050565b610d7281610d58565b82525050565b610d81816105d8565b82525050565b5f604082019050610d9a5f830185610d69565b610da76020830184610d78565b9392505050565b610db78161067a565b82525050565b5f604082019050610dd05f830185610d78565b610ddd6020830184610dae565b939250505056fea264697066735822122094778ee4a8ed2f5098dd61744bc8fd59f65a2e84f7d93f74ed4ab471c78c4c2664736f6c63430008150033",
  "immutableReferences": {},
  "source": "// SPDX-License-Identifier: MIT\r\npragma solidity >=0.8.19;\r\n\r\ncontract MedVault{\r\n    event AddInfo(address recipient, uint infoId);\r\n    event DeleteInfo(uint infoId, bool isDeleted);\r\n\r\n    struct Info{\r\n        uint id;\r\n        uint timeStamp;\r\n        string healthInfo;\r\n        bool isDeleted;\r\n    }\r\n\r\n    Info[] private infos;\r\n\r\n    mapping(uint => address) infoOwner;\r\n\r\n    function addInfo(string memory healthInfo, bool isDeleted) external {\r\n        uint infoId = infos.length;\r\n        infos.push(Info(infoId, block.timestamp , healthInfo, isDeleted));\r\n        infoOwner[infoId] = msg.sender;\r\n        emit AddInfo(msg.sender, infoId);\r\n    }\r\n\r\n    function getHealthInfo() external view returns(Info[] memory){\r\n        Info[] memory temp = new Info[](infos.length);\r\n        uint count = 0;\r\n\r\n        for(uint i = 0 ;i<infos.length;i++){\r\n            if(infoOwner[i]==msg.sender && infos[i].isDeleted == false){\r\n                temp[count] = infos[i];\r\n                count++;\r\n            }\r\n        }\r\n        Info[] memory result = new Info[](count);\r\n        for(uint i = 0;i<count;i++){\r\n            result[i] = temp[i];\r\n        }\r\n        return result;\r\n    }\r\n\r\n    function deleteInfo(uint infoId, bool isDeleted) external{\r\n        if(infoOwner[infoId]==msg.sender){\r\n            infos[infoId].isDeleted = true;\r\n            emit DeleteInfo(infoId, isDeleted);\r\n        }\r\n    }\r\n\r\n}",
  "sourcePath": "C:\\Users\\mohit\\OneDrive\\Desktop\\Mohith Personal\\Projects\\MedVault\\backend_blockchain\\contracts\\InfoContract.sol",
  "compiler": {
    "name": "solc",
    "version": "0.8.21+commit.d9974bed.Emscripten.clang"
  },
  "schemaVersion": "3.4.16",
  "updatedAt": "2023-12-03T11:54:04.159Z",
  "devdoc": {
    "kind": "dev",
    "methods": {},
    "version": 1
  },
  "userdoc": {
    "kind": "user",
    "methods": {},
    "version": 1
  }
}